:02000000B72B1C
:0E000600213083120313FD00FD0B07280800B4
:100014000F3083120313FC004730FD00FD0B102842
:0A002400FC0B10280000000008008B
:06002E00000000000800C4
:1000340083120313DB1B20288713212887175B1BDC
:100044002528071326280717DB1A2A2887122B28A6
:1000540087165B1A2F280712302807164A183428E7
:10006400881735288813881617208812DB193C282E
:1000740087133D2887175B19412807134228071760
:10008400DB1846288712472887165B184B28071267
:100094004C2807164A1850288817512888138816A0
:1000A400172088124A1C58280A20592803200800BF
:0E00B400F201F101F001F801F3010030080043
:0800C200FA1FF21300300800E0
:1000CA007B15FB1F6F280130F300F201F101F001EB
:0800DA00FA0DF20CFF300800E2
:1000E2007B14FB1F7C28F201FA1FFF30F200F100A3
:0A00F200F000FA0DF20CFF300800D8
:0E00FC008312031349088A0048088200080096
:10010A000E3083120313FD00FD0B8928000008003E
:10011A00831203134A105A08DB001A204A140800F3
:10012A00A0017208031DAA287108F2007008F100E4
:10013A00F001A0157208031DAA287108F200F10146
:10014A00A011201672080319B8282008F302031D0B
:10015A00031CBC280310F21BC028F00DF10DF20D90
:10016A00F30BB028BC280130FC005A20C328023007
:0E017A00FC006520C3280430FC006120080052
:10018800FB14FB1FCE28FF30F300F200F100F00053
:08019800FA0DF20CFF30080023
:0601A000FB15FF30080012
:1001A600831203137408003A031DEE287508003AFB
:1001B600031DEE287608003A031DEE287708003A5C
:1001C600031DEE28FF30F000FF30F1007F30F20013
:1001D600FF30F300892983120313770803197D2959
:1001E600730803198029720876068039FA00F21717
:1001F600F617A0017208F8007108FC007008FD00EF
:100206007408FD027508031C750FFC027608031CB2
:10021600760FF802F801FC01FD01031C19290310F1
:10022600F20CF10CF00CF80C0130A0007708F30288
:10023600031C23297E302007F30703188329282966
:100246007E302007F307031C86291830FA07FD0DB8
:10025600FC0DF80DF00DF10DF20DA00D7408F00275
:100266007508031C750FF1027608031C760FF2025F
:10027600760DA004201C41297D144C297408F00732
:1002860075080318750FF10776080318760AF20742
:100296007D10FA031F307A05031D2A297B1B7D1C5E
:1002A60073290310F00DF10DF20DA00D7408F00284
:1002B6007508031C750FF1027608031C760FF2020F
:1002C600760D20040139FD070318FC0A0319F80A04
:1002D600031D7329F80CFC0CFD0CF30A0319832982
:1002E600FA1FF8137808F2007C08F1007D08F00088
:1002F600003088290130D020882902305A208829E8
:0E0306000430C420882908306520000008005B
:1003140083120313FB017308031D77080319E129F2
:1003240072087606FA007708F3077E30031C9E29CC
:10033400F3020318E429A129F302031CE729720834
:10034400F8007108FC007008FD00F817F617031098
:10035400F201F101F0011830A0007D1CBB297408E2
:10036400F00775080318750FF10776080318760F60
:10037400F207F20CF10CF00CF80CFC0CFD0C031061
:10038400A00BAF29F21BCB29F80DF00DF10DF20DE6
:10039400F3037B1B701CDD29F81FDD29F00A031908
:1003A400F10A0319F20A031DDD29F20CF10CF00C19
:1003B400F30A0319E429FA1FF2130030E929013082
:1003C4005A20E9290230C420E929043065200000BC
:0203D40008001F
:1003D60083120313FB01FC01FA01730803192A2A8D
:1003E600F2178E30F302F31BFB290319FB292D2A82
:1003F600F309F30A08307302031C102AF300F10D07
:100406007208F100F20108307302031C102AF10D84
:10041600F1017308031D0310182A73080319182A1B
:100426000310F20CF10CF30B132A7B1B711C222A0E
:10043600031C222AF10A0319F20AF21B392AFA1FAF
:100446003C2AF209F109F10A0319F20A3C2AF201DF
:10045600F1013C2A7B14FB1F3F2AF201FA1F3F2AB7
:10046600FF30F200F100FA0DF20C3F2A0130FC00D9
:10047600412A0030FC00412AFF30FC00FC08031929
:0E048600452A71207108F0007208F10008008C
:1004940083120313F801F9011030FC00710DF80DFB
:1004A400F90D7408F8027508031C750FF902031896
:1004B400622A7408F80775080318750FF907031002
:0A04C400F00DF10DFC0B502A0800AA
:1004CE008B2A303083120313F000DE2A3130F00015
:1004DE00DE2A3230F000DE2A3330F000DE2A3430ED
:1004EE00F000DE2A3530F000DE2A3630F000DE2A4B
:1004FE003730F000DE2A3830F000DE2A3930F000D6
:10050E00DE2A2E30F000DE2A831203130030570647
:10051E00031D932A003056060319682A0030570629
:10052E00031D9B2A0130560603196D2A003057060B
:10053E00031DA32A023056060319702A00305706EF
:10054E00031DAB2A033056060319732A00305706D3
:10055E00031DB32A043056060319762A00305706B7
:10056E00031DBB2A053056060319792A003057069B
:10057E00031DC32A0630560603197C2A003057067F
:10058E00031DCB2A0730560603197F2A0030570663
:10059E00031DD32A083056060319822A0030570647
:1005AE00031DDB2A093056060319852A882A0800FE
:1005BE00831203139F01C0309F042709F0007008B7
:1005CE0083169F051F179F1783125608F000F00D14
:1005DE007010F00D7010F00D701070089F041F1445
:1005EE0085201F151F1DFD2A0000F92A1F101E0849
:1005FE00F100F00183161E08F0040030F10408002B
:10060E00192B803083120313D6002C2BC030D6004A
:10061E002C2B9430D6002C2BD430D6002C2B8030A3
:10062E00D6002C2B831203135608013A0319082BFC
:10063E005608023A03190D2B5608033A0319102BCC
:10064E005608043A0319132B162B5703F0005608BD
:10065E00F0077008D6007008DB001A204A10D90186
:10066E0059085807840000080319452B59085807E4
:10067E0084000008DA008D20D90A372B4A140800AE
:10068E007E208A110A128000840AC80A0319C90A38
:08069E00F003031D472B0800C7
:1006A600831203137008F8007108F000F101F201DB
:1006B600F301FB01FC019630F300FA017008F1002A
:0C06C6007808F000F801F201952008000F
:1006D20083160313881288130712871207138713CE
:1006E20083128812881387130713871207120A20AE
:1006F2000A200A20871607168816172088120A2051
:100702008816172088120A208816172088120A20B5
:1007120007128816172088120A20881617208812B6
:10072200871287178816172088120A208713071640
:1007320088161720881207128816172088120A2096
:1007420088161720881207168816172088120A2082
:100752000712881617208812871707178716071699
:0C0762008816172088120A204A1408008C
:10076E00BE25213083120313D3003330D400FF3063
:10077E008316850069230130DB001A200C30DB0064
:10078E001A2083169F0102308312D600DF227008D2
:10079E008312CB007108CC000330D600DF22700824
:1007AE008312D1007108D2005323E130F4007A3065
:1007BE00F5001C30F6008130F7008A213130F4004C
:1007CE000830F5002C30F6007D30F700D320EB21F9
:1007DE007008D1007108D2004B08F0004C08F100EF
:1007EE005323E130F4007A30F5001C30F6008130EE
:1007FE00F7008A210030F4000030F5002030F600BA
:10080E008330F700D3200030F4000030F500703054
:10081E00F6008530F7008A21EB217008CB007108B5
:10082E00CC0071084E06031D1E2C4D087006031DCC
:10083E00292C52085006031D262C4F085106031D65
:10084E00292C2C2C0130DB001A204B08CD004C0833
:10085E00CE005108CF005208D0005308D5001030FA
:10086E00F4002730F5004B08F0004C08F1004A2246
:10087E007008D6007108D70067228312031355083B
:10088E00840070088000530AD500E830F40003306D
:10089E00F5004B08F0004C08F1004A220A30F40033
:1008AE000030F5004A227808F0007908F10070084F
:1008BE00D6007108D70067228312031355088400EF
:1008CE007008800003305307D5006430F400003008
:1008DE00F5004B08F0004C08F1004A220A30F400F3
:1008EE000030F5004A227808F0007908F10070080F
:1008FE00D6007108D70067228312031355088400AF
:10090E007008800004305307D5000A30F400003020
:10091E00F5004B08F0004C08F1004A220A30F400B2
:10092E000030F5004A227808F0007908F1007008CE
:10093E00D6007108D700672283120313550884006E
:10094E00700880000130D6000130D7002830D80062
:10095E0007230130D6000A30D7005308D8000723EA
:10096E000130D6001030D7003930D8000723540894
:10097E00D5001030F4002730F5005108F000520871
:10098E00F1004A227008D6007108D7006722831240
:10099E0003135508840070088000540AD500E8300F
:1009AE00F4000330F5005108F0005208F1004A221D
:1009BE000A30F4000030F5004A227808F000790879
:1009CE00F1007008D6007108D70067228312031356
:1009DE00550884007008800003305407D500643039
:1009EE00F4000030F5005108F0005208F1004A22E0
:1009FE000A30F4000030F5004A227808F000790839
:100A0E00F1007008D6007108D70067228312031315
:100A1E0055088400700880000A30F4000030F5009C
:100A2E005108F0005208F1004A227808F0007908C7
:100A3E00F1007108003C031D262D7008043C0318BC
:100A4E004C2D04305407D5000A30F4000030F50068
:100A5E005108F0005208F1004A22F00A0319F10A77
:100A6E000A30F4000030F5004A227808F0007908C8
:100A7E00F1007008D6007108D700672283120313A5
:100A8E0055088400700880006C2D04305407D50082
:100A9E000A30F4000030F5005108F0005208F10061
:100AAE004A220A30F4000030F5004A227808F0009D
:100ABE007908F1007008D6007108D70067228312FA
:100ACE00031355088400700880000230D6000130F0
:100ADE00D7003D30D80007230230D6000A30D700A9
:100AEE005408D80007230230D6001030D7003B3010
:100AFE00D80007230330FB008A30FC005530FD0080
:100B0E00FD0B872DFC0B872DFB0B872D00000000A6
:040B1E00C82B902D23
:100B7C0021308400273083120313F0009630C80014
:080B8C000530C90047230800F1
:0C0B2C00303430342E3430343034003497
:020B38000F3478
:100B3A0056346F346C347434613467346534203419
:060B4A003D3420340034AC
:0C0B5000303430342E3430343034003473
:040B5C0056340034D7
:040B600041340034E8
:100B6400433475347234723465346E3474342034DE
:060B74003D342034003482
:02400E004A2F37
:00000001FF
